{
  "_format": "hh-sol-artifact-1",
  "contractName": "CommissionLogic",
  "sourceName": "contracts/CommissionLogic.sol",
  "abi": [
    {
      "inputs": [
        {
          "internalType": "address",
          "name": "_cs",
          "type": "address"
        }
      ],
      "stateMutability": "nonpayable",
      "type": "constructor"
    },
    {
      "inputs": [],
      "name": "ETH",
      "outputs": [
        {
          "internalType": "address",
          "name": "",
          "type": "address"
        }
      ],
      "stateMutability": "view",
      "type": "function"
    },
    {
      "inputs": [],
      "name": "cs",
      "outputs": [
        {
          "internalType": "address",
          "name": "",
          "type": "address"
        }
      ],
      "stateMutability": "view",
      "type": "function"
    },
    {
      "inputs": [
        {
          "internalType": "bytes",
          "name": "data",
          "type": "bytes"
        },
        {
          "internalType": "address",
          "name": "to",
          "type": "address"
        },
        {
          "components": [
            {
              "internalType": "address",
              "name": "holder",
              "type": "address"
            },
            {
              "internalType": "address",
              "name": "token",
              "type": "address"
            },
            {
              "internalType": "uint256",
              "name": "value",
              "type": "uint256"
            }
          ],
          "internalType": "struct CommissionLogic.Receiver[]",
          "name": "_receiver",
          "type": "tuple[]"
        }
      ],
      "name": "execute",
      "outputs": [],
      "stateMutability": "payable",
      "type": "function"
    }
  ],
  "bytecode": "0x608060405234801561000f575f80fd5b50604051610a64380380610a6483398101604081905261002e91610052565b5f80546001600160a01b0319166001600160a01b039290921691909117905561007f565b5f60208284031215610062575f80fd5b81516001600160a01b0381168114610078575f80fd5b9392505050565b6109d88061008c5f395ff3fe608060405260043610610033575f3560e01c806337ff72fb14610037578063540a5e4e1461004c5780638322fff214610086575b5f80fd5b61004a610045366004610821565b610099565b005b348015610057575f80fd5b505f5461006a906001600160a01b031681565b6040516001600160a01b03909116815260200160405180910390f35b348015610091575f80fd5b5061006a5f81565b6001600160a01b0382166100f45760405162461bcd60e51b815260206004820152601760248201527f434c203a20556e76616c696420746f206164647265737300000000000000000060448201526064015b60405180910390fd5b345f805b835181101561067d575f6001600160a01b031684828151811061011d5761011d6108e0565b6020026020010151602001516001600160a01b03160361020457838181518110610149576101496108e0565b6020026020010151604001518310156101b45760405162461bcd60e51b815260206004820152602760248201527f434c203a20496e73756666696369656e74206574682062616c616e6365206f666044820152661039b2b73232b960c91b60648201526084016100eb565b8381815181106101c6576101c66108e0565b602002602001015160400151836101dd9190610908565b92508381815181106101f1576101f16108e0565b6020026020010151604001519150610560565b5f848281518110610217576102176108e0565b6020026020010151602001519050848281518110610237576102376108e0565b602090810291909101015160409081015190516370a0823160e01b81523360048201526001600160a01b038316906370a0823190602401602060405180830381865afa158015610289573d5f803e3d5ffd5b505050506040513d601f19601f820116820180604052508101906102ad9190610921565b101561030d5760405162461bcd60e51b815260206004820152602960248201527f434c203a20496e73756666696369656e7420746f6b656e2062616c616e63652060448201526837b31039b2b73232b960b91b60648201526084016100eb565b84828151811061031f5761031f6108e0565b60209081029190910101516040908101519051636eb1769f60e11b81523360048201523060248201526001600160a01b0383169063dd62ed3e90604401602060405180830381865afa158015610377573d5f803e3d5ffd5b505050506040513d601f19601f8201168201806040525081019061039b9190610921565b10156104035760405162461bcd60e51b815260206004820152603160248201527f434c203a20496e73756666696369656e7420746f6b656e20616c6c6f77616e63604482015270652062616c616e6365206f66207468697360781b60648201526084016100eb565b806001600160a01b03166323b872dd3330888681518110610426576104266108e0565b602090810291909101015160409081015190516001600160e01b031960e086901b1681526001600160a01b03938416600482015292909116602483015260448201526064016020604051808303815f875af1158015610487573d5f803e3d5ffd5b505050506040513d601f19601f820116820180604052508101906104ab9190610938565b50806001600160a01b031663095ea7b35f8054906101000a90046001600160a01b03168785815181106104e0576104e06108e0565b6020026020010151604001516040518363ffffffff1660e01b815260040161051d9291906001600160a01b03929092168252602082015260400190565b6020604051808303815f875af1158015610539573d5f803e3d5ffd5b505050506040513d601f19601f8201168201806040525081019061055d9190610938565b50505b5f5484516001600160a01b03909116908390869084908110610584576105846108e0565b60200260200101515f01518684815181106105a1576105a16108e0565b6020026020010151602001518785815181106105bf576105bf6108e0565b602090810291909101015160409081015190516001600160a01b039384166024820152929091166044830152606482015260840160408051601f198184030181529181526020820180516001600160e01b03166334954a9960e01b17905251610628919061095e565b5f6040518083038185875af1925050503d805f8114610662576040519150601f19603f3d011682016040523d82523d5f602084013e610667565b606091505b50505080806106759061098a565b9150506100f8565b50836001600160a01b03168286604051610697919061095e565b5f6040518083038185875af1925050503d805f81146106d1576040519150601f19603f3d011682016040523d82523d5f602084013e6106d6565b606091505b5050505050505050565b634e487b7160e01b5f52604160045260245ffd5b6040516060810167ffffffffffffffff81118282101715610717576107176106e0565b60405290565b604051601f8201601f1916810167ffffffffffffffff81118282101715610746576107466106e0565b604052919050565b80356001600160a01b0381168114610764575f80fd5b919050565b5f82601f830112610778575f80fd5b8135602067ffffffffffffffff821115610794576107946106e0565b6107a2818360051b0161071d565b828152606092830285018201928282019190878511156107c0575f80fd5b8387015b858110156108145781818a0312156107db575f8081fd5b6107e36106f4565b6107ec8261074e565b81526107f986830161074e565b818701526040828101359082015284529284019281016107c4565b5090979650505050505050565b5f805f60608486031215610833575f80fd5b833567ffffffffffffffff8082111561084a575f80fd5b818601915086601f83011261085d575f80fd5b8135602082821115610871576108716106e0565b610883601f8301601f1916820161071d565b8281528982848701011115610896575f80fd5b82828601838301375f81840183015296506108b288820161074e565b9550505060408601359150808211156108c9575f80fd5b506108d686828701610769565b9150509250925092565b634e487b7160e01b5f52603260045260245ffd5b634e487b7160e01b5f52601160045260245ffd5b8181038181111561091b5761091b6108f4565b92915050565b5f60208284031215610931575f80fd5b5051919050565b5f60208284031215610948575f80fd5b81518015158114610957575f80fd5b9392505050565b5f82515f5b8181101561097d5760208186018101518583015201610963565b505f920191825250919050565b5f6001820161099b5761099b6108f4565b506001019056fea2646970667358221220d47d9c511ccb4241fe352671012bbf98a2294734b78b57f746892551c1d72cc564736f6c63430008140033",
  "linkReferences": {},
  "deployedLinkReferences": {}
}