{
  "_format": "hh-sol-artifact-1",
  "contractName": "BatchCommissionV2",
  "sourceName": "contracts/BatchCommissionV2.sol",
  "abi": [
    {
      "anonymous": false,
      "inputs": [
        {
          "indexed": true,
          "internalType": "address",
          "name": "user",
          "type": "address"
        },
        {
          "indexed": true,
          "internalType": "bytes",
          "name": "key",
          "type": "bytes"
        },
        {
          "components": [
            {
              "internalType": "address",
              "name": "user",
              "type": "address"
            },
            {
              "internalType": "address",
              "name": "token",
              "type": "address"
            },
            {
              "internalType": "uint256",
              "name": "balance",
              "type": "uint256"
            }
          ],
          "indexed": false,
          "internalType": "struct BatchCommissionV2.CommissionInfo[]",
          "name": "CommissionInfos",
          "type": "tuple[]"
        }
      ],
      "name": "CommissionDeposited",
      "type": "event"
    },
    {
      "anonymous": false,
      "inputs": [
        {
          "indexed": true,
          "internalType": "address",
          "name": "user",
          "type": "address"
        },
        {
          "indexed": true,
          "internalType": "bytes",
          "name": "key",
          "type": "bytes"
        },
        {
          "components": [
            {
              "internalType": "address",
              "name": "user",
              "type": "address"
            },
            {
              "internalType": "address",
              "name": "token",
              "type": "address"
            },
            {
              "internalType": "uint256",
              "name": "balance",
              "type": "uint256"
            }
          ],
          "indexed": false,
          "internalType": "struct BatchCommissionV2.CommissionInfo[]",
          "name": "CommissionInfos",
          "type": "tuple[]"
        }
      ],
      "name": "CommissionDistributed",
      "type": "event"
    },
    {
      "anonymous": false,
      "inputs": [
        {
          "indexed": true,
          "internalType": "address",
          "name": "user",
          "type": "address"
        },
        {
          "indexed": true,
          "internalType": "bytes",
          "name": "key",
          "type": "bytes"
        },
        {
          "components": [
            {
              "internalType": "address",
              "name": "user",
              "type": "address"
            },
            {
              "internalType": "address",
              "name": "token",
              "type": "address"
            },
            {
              "internalType": "uint256",
              "name": "balance",
              "type": "uint256"
            }
          ],
          "indexed": false,
          "internalType": "struct BatchCommissionV2.CommissionInfo[]",
          "name": "CommissionInfos",
          "type": "tuple[]"
        }
      ],
      "name": "CommissionReturned",
      "type": "event"
    },
    {
      "anonymous": false,
      "inputs": [
        {
          "indexed": false,
          "internalType": "uint8",
          "name": "version",
          "type": "uint8"
        }
      ],
      "name": "Initialized",
      "type": "event"
    },
    {
      "inputs": [],
      "name": "ETH",
      "outputs": [
        {
          "internalType": "address",
          "name": "",
          "type": "address"
        }
      ],
      "stateMutability": "view",
      "type": "function"
    },
    {
      "inputs": [],
      "name": "commissionStorage",
      "outputs": [
        {
          "internalType": "contract ICommissionStorag",
          "name": "",
          "type": "address"
        }
      ],
      "stateMutability": "view",
      "type": "function"
    },
    {
      "inputs": [
        {
          "internalType": "bytes",
          "name": "key",
          "type": "bytes"
        },
        {
          "components": [
            {
              "internalType": "address",
              "name": "user",
              "type": "address"
            },
            {
              "internalType": "address",
              "name": "token",
              "type": "address"
            },
            {
              "internalType": "uint256",
              "name": "balance",
              "type": "uint256"
            }
          ],
          "internalType": "struct BatchCommissionV2.CommissionInfo[]",
          "name": "commissionInfos",
          "type": "tuple[]"
        }
      ],
      "name": "depositCommission",
      "outputs": [
        {
          "internalType": "bool",
          "name": "",
          "type": "bool"
        }
      ],
      "stateMutability": "payable",
      "type": "function"
    },
    {
      "inputs": [
        {
          "internalType": "bytes",
          "name": "key",
          "type": "bytes"
        }
      ],
      "name": "destroyAndReturnCommission",
      "outputs": [
        {
          "internalType": "bool",
          "name": "",
          "type": "bool"
        }
      ],
      "stateMutability": "nonpayable",
      "type": "function"
    },
    {
      "inputs": [
        {
          "internalType": "address",
          "name": "targetUser",
          "type": "address"
        },
        {
          "internalType": "bytes",
          "name": "key",
          "type": "bytes"
        }
      ],
      "name": "distributeCommission",
      "outputs": [
        {
          "internalType": "bool",
          "name": "",
          "type": "bool"
        }
      ],
      "stateMutability": "nonpayable",
      "type": "function"
    },
    {
      "inputs": [
        {
          "internalType": "address",
          "name": "_commissionStorage",
          "type": "address"
        }
      ],
      "name": "initialize",
      "outputs": [],
      "stateMutability": "nonpayable",
      "type": "function"
    },
    {
      "inputs": [
        {
          "internalType": "address",
          "name": "",
          "type": "address"
        },
        {
          "internalType": "bytes",
          "name": "",
          "type": "bytes"
        },
        {
          "internalType": "uint256",
          "name": "",
          "type": "uint256"
        }
      ],
      "name": "userCommissionInfo",
      "outputs": [
        {
          "internalType": "address",
          "name": "user",
          "type": "address"
        },
        {
          "internalType": "address",
          "name": "token",
          "type": "address"
        },
        {
          "internalType": "uint256",
          "name": "balance",
          "type": "uint256"
        }
      ],
      "stateMutability": "view",
      "type": "function"
    }
  ],
  "bytecode": "0x608060405234801561000f575f80fd5b506112748061001d5f395ff3fe60806040526004361061006e575f3560e01c8063c4d66de81161004c578063c4d66de8146100f5578063dd07f74614610116578063eab5442914610135578063f2a3c26314610148575f80fd5b80636bbdf2ad146100725780638322fff2146100b3578063b386b441146100c6575b5f80fd5b34801561007d575f80fd5b505f54610096906201000090046001600160a01b031681565b6040516001600160a01b0390911681526020015b60405180910390f35b3480156100be575f80fd5b506100965f81565b3480156100d1575f80fd5b506100e56100e0366004610ecf565b61018d565b60405190151581526020016100aa565b348015610100575f80fd5b5061011461010f366004610f24565b6103ec565b005b348015610121575f80fd5b506100e5610130366004610f44565b610516565b6100e5610143366004610f8f565b61088f565b348015610153575f80fd5b5061016761016236600461108e565b610d37565b604080516001600160a01b039485168152939092166020840152908201526060016100aa565b335f9081526001602052604080822090518291906101ac9085906110e1565b9081526020016040518091039020805480602002602001604051908101604052809291908181526020015f905b82821015610232575f848152602090819020604080516060810182526003860290920180546001600160a01b039081168452600180830154909116848601526002909101549183019190915290835290920191016101d9565b50505050905080515f036102a0578260405161024e91906110e1565b6040518091039020336001600160a01b03167f9ad5483a6add92b8159939e71b1c5a1085dcd0ff833248fd08f6b4a22463b8008360405161028f919061110d565b60405180910390a350600192915050565b335f908152600160205260409081902090516102bd9085906110e1565b90815260200160405180910390205f6102d69190610d9e565b5f5b81518110156103dd575f8282815181106102f4576102f4611171565b602002602001015190505f6001600160a01b031681602001516001600160a01b03160361034e576040808201519051339180156108fc02915f818181858888f19350505050158015610348573d5f803e3d5ffd5b506103ca565b6020810151604080830151905163a9059cbb60e01b815233600482015260248101919091526001600160a01b0382169063a9059cbb906044016020604051808303815f875af11580156103a3573d5f803e3d5ffd5b505050506040513d601f19601f820116820180604052508101906103c79190611185565b50505b50806103d5816111b8565b9150506102d8565b508260405161024e91906110e1565b5f54610100900460ff161580801561040a57505f54600160ff909116105b806104235750303b15801561042357505f5460ff166001145b61048b5760405162461bcd60e51b815260206004820152602e60248201527f496e697469616c697a61626c653a20636f6e747261637420697320616c72656160448201526d191e481a5b9a5d1a585b1a5e995960921b60648201526084015b60405180910390fd5b5f805460ff1916600117905580156104ac575f805461ff0019166101001790555b5f805462010000600160b01b031916620100006001600160a01b038516021790558015610512575f805461ff0019169055604051600181527f7f26b83ff96e1f2b6a682f133852f6798a09c465da95921460cefb38474024989060200160405180910390a15b5050565b6001600160a01b0382165f90815260016020526040808220905182919061053e9085906110e1565b9081526020016040518091039020805480602002602001604051908101604052809291908181526020015f905b828210156105c4575f848152602090819020604080516060810182526003860290920180546001600160a01b0390811684526001808301549091168486015260029091015491830191909152908352909201910161056b565b5050505090505f8151116105ea5760405162461bcd60e51b8152600401610482906111d0565b6001600160a01b0384165f908152600160205260409081902090516106109085906110e1565b90815260200160405180910390205f6106299190610d9e565b5f5b815181101561082b575f82828151811061064757610647611171565b602002602001015190505f806001600160a01b031682602001516001600160a01b03160361067a575060408101516106ff565b60208201515f54604080850151905163095ea7b360e01b81526001600160a01b036201000090930483166004820152602481019190915291169063095ea7b3906044016020604051808303815f875af11580156106d9573d5f803e3d5ffd5b505050506040513d601f19601f820116820180604052508101906106fd9190611185565b505b5f80548351602085015160408087015190516001600160a01b03938416602482015291831660448301526064820152620100009092041690839060840160408051601f198184030181529181526020820180516001600160e01b03166334954a9960e01b1790525161077191906110e1565b5f6040518083038185875af1925050503d805f81146107ab576040519150601f19603f3d011682016040523d82523d5f602084013e6107b0565b606091505b50509050806108155760405162461bcd60e51b815260206004820152602b60248201527f436f6d6d697373696f6e53746f726167652075706461746542616c616e63652060448201526a18d85b1b0819985a5b195960aa1b6064820152608401610482565b5050508080610823906111b8565b91505061062b565b508260405161083a91906110e1565b6040518091039020846001600160a01b03167fc7ffcce0e73ad260bcfbf9ccbc7ea5f55511fc07eb732372f7ffe0aa0ddf46b58360405161087b919061110d565b60405180910390a360019150505b92915050565b5f808251116108b05760405162461bcd60e51b8152600401610482906111d0565b335f9081526001602052604080822090518291906108cf9087906110e1565b9081526040519081900360200190205411156108f0576108ee8461018d565b505b5f5b8351811015610c13575f84828151811061090e5761090e611171565b602002602001015190505f6001600160a01b031681602001516001600160a01b0316036109aa5760408101516109449084611214565b9250823410156109a55760405162461bcd60e51b815260206004820152602660248201527f496e73756666696369656e742045746865722073656e7420666f7220636f6d6d60448201526534b9b9b4b7b760d11b6064820152608401610482565b610c00565b60208101516040516370a0823160e01b81523360048201525f916001600160a01b0316906370a0823190602401602060405180830381865afa1580156109f2573d5f803e3d5ffd5b505050506040513d601f19601f82011682018060405250810190610a169190611227565b90508160400151811015610a6c5760405162461bcd60e51b815260206004820152601a60248201527f496e73756666696369656e7420746f6b656e2062616c616e63650000000000006044820152606401610482565b60408083015160208401519151636eb1769f60e11b815233600482015230602482015290916001600160a01b03169063dd62ed3e90604401602060405180830381865afa158015610abf573d5f803e3d5ffd5b505050506040513d601f19601f82011682018060405250810190610ae39190611227565b1015610b7d5760405162461bcd60e51b815260206004820152605a60248201527f546865206e756d626572206f6620746f6b656e7320746861742074686520636160448201527f6c6c657220697320616c6c6f77656420746f207472616e7366657220746f207460648201527f6869732061646472657373206973206e6f7420656e6f7567682e000000000000608482015260a401610482565b602082015160408084015190516323b872dd60e01b815233600482015230602482015260448101919091526001600160a01b03909116906323b872dd906064016020604051808303815f875af1158015610bd9573d5f803e3d5ffd5b505050506040513d601f19601f82011682018060405250810190610bfd9190611185565b50505b5080610c0b816111b8565b9150506108f2565b505f5b8351811015610ce7575f848281518110610c3257610c32611171565b6020026020010151905060015f336001600160a01b03166001600160a01b031681526020019081526020015f2086604051610c6d91906110e1565b90815260408051602092819003830190208054600180820183555f92835291849020855160039092020180546001600160a01b03199081166001600160a01b039384161782559486015192810180549095169290911691909117909255919091015160029091015580610cdf816111b8565b915050610c16565b5083604051610cf691906110e1565b6040518091039020336001600160a01b03167fd730ca2eb87d59849017803c3acfd7858f1651ac60f9b7a1dcc51a3b4a924e708560405161087b919061110d565b600160209081525f84815260409020835180850183018051928152908301928501929092209152805482908110610d6c575f80fd5b5f9182526020909120600390910201805460018201546002909201546001600160a01b03918216955091169250905083565b5080545f8255600302905f5260205f2090810190610dbc9190610dbf565b50565b5b80821115610df15780546001600160a01b0319908116825560018201805490911690555f6002820155600301610dc0565b5090565b634e487b7160e01b5f52604160045260245ffd5b6040516060810167ffffffffffffffff81118282101715610e2c57610e2c610df5565b60405290565b604051601f8201601f1916810167ffffffffffffffff81118282101715610e5b57610e5b610df5565b604052919050565b5f82601f830112610e72575f80fd5b813567ffffffffffffffff811115610e8c57610e8c610df5565b610e9f601f8201601f1916602001610e32565b818152846020838601011115610eb3575f80fd5b816020850160208301375f918101602001919091529392505050565b5f60208284031215610edf575f80fd5b813567ffffffffffffffff811115610ef5575f80fd5b610f0184828501610e63565b949350505050565b80356001600160a01b0381168114610f1f575f80fd5b919050565b5f60208284031215610f34575f80fd5b610f3d82610f09565b9392505050565b5f8060408385031215610f55575f80fd5b610f5e83610f09565b9150602083013567ffffffffffffffff811115610f79575f80fd5b610f8585828601610e63565b9150509250929050565b5f806040808486031215610fa1575f80fd5b833567ffffffffffffffff80821115610fb8575f80fd5b610fc487838801610e63565b9450602091508186013581811115610fda575f80fd5b8601601f81018813610fea575f80fd5b803582811115610ffc57610ffc610df5565b61100a848260051b01610e32565b8181528481019350606091820283018501918a831115611028575f80fd5b928501925b8284101561107d5780848c031215611044575f8081fd5b61104c610e09565b61105585610f09565b8152611062878601610f09565b8188015284880135888201528552938501939283019261102d565b508096505050505050509250929050565b5f805f606084860312156110a0575f80fd5b6110a984610f09565b9250602084013567ffffffffffffffff8111156110c4575f80fd5b6110d086828701610e63565b925050604084013590509250925092565b5f82515f5b8181101561110057602081860181015185830152016110e6565b505f920191825250919050565b602080825282518282018190525f919060409081850190868401855b8281101561116457815180516001600160a01b0390811686528782015116878601528501518585015260609093019290850190600101611129565b5091979650505050505050565b634e487b7160e01b5f52603260045260245ffd5b5f60208284031215611195575f80fd5b81518015158114610f3d575f80fd5b634e487b7160e01b5f52601160045260245ffd5b5f600182016111c9576111c96111a4565b5060010190565b60208082526024908201527f436f6d6d697373696f6e2061727261792073686f756c64206e6f7420626520656040820152636d70747960e01b606082015260800190565b80820180821115610889576108896111a4565b5f60208284031215611237575f80fd5b505191905056fea2646970667358221220ed209b9ea9fa275e7cb55e8b643cab3814f894653b95042126c3d992bc10f21264736f6c63430008140033",
  "linkReferences": {},
  "deployedLinkReferences": {}
}