{
  "_format": "hh-sol-artifact-1",
  "contractName": "CommissionStorage",
  "sourceName": "contracts/commissionStorage.sol",
  "abi": [
    {
      "anonymous": false,
      "inputs": [
        {
          "indexed": true,
          "internalType": "address",
          "name": "holder",
          "type": "address"
        },
        {
          "indexed": true,
          "internalType": "address",
          "name": "token",
          "type": "address"
        },
        {
          "indexed": false,
          "internalType": "uint256",
          "name": "value",
          "type": "uint256"
        }
      ],
      "name": "updateBalanceEvent",
      "type": "event"
    },
    {
      "anonymous": false,
      "inputs": [
        {
          "indexed": true,
          "internalType": "address",
          "name": "holder",
          "type": "address"
        },
        {
          "indexed": true,
          "internalType": "address",
          "name": "token",
          "type": "address"
        },
        {
          "indexed": false,
          "internalType": "uint256",
          "name": "value",
          "type": "uint256"
        }
      ],
      "name": "withdrawEvent",
      "type": "event"
    },
    {
      "inputs": [],
      "name": "ETH",
      "outputs": [
        {
          "internalType": "address",
          "name": "",
          "type": "address"
        }
      ],
      "stateMutability": "view",
      "type": "function"
    },
    {
      "inputs": [
        {
          "internalType": "address",
          "name": "",
          "type": "address"
        },
        {
          "internalType": "address",
          "name": "",
          "type": "address"
        }
      ],
      "name": "balances",
      "outputs": [
        {
          "internalType": "uint256",
          "name": "",
          "type": "uint256"
        }
      ],
      "stateMutability": "view",
      "type": "function"
    },
    {
      "inputs": [
        {
          "internalType": "address",
          "name": "holder",
          "type": "address"
        }
      ],
      "name": "getTokenBalances",
      "outputs": [
        {
          "components": [
            {
              "internalType": "address",
              "name": "token",
              "type": "address"
            },
            {
              "internalType": "uint256",
              "name": "value",
              "type": "uint256"
            }
          ],
          "internalType": "struct CommissionStorage.TokenValue[]",
          "name": "",
          "type": "tuple[]"
        }
      ],
      "stateMutability": "view",
      "type": "function"
    },
    {
      "inputs": [
        {
          "internalType": "address",
          "name": "",
          "type": "address"
        },
        {
          "internalType": "uint256",
          "name": "",
          "type": "uint256"
        }
      ],
      "name": "tokenList",
      "outputs": [
        {
          "internalType": "address",
          "name": "",
          "type": "address"
        }
      ],
      "stateMutability": "view",
      "type": "function"
    },
    {
      "inputs": [
        {
          "internalType": "address",
          "name": "holder",
          "type": "address"
        },
        {
          "internalType": "address",
          "name": "token",
          "type": "address"
        },
        {
          "internalType": "uint256",
          "name": "_balance",
          "type": "uint256"
        }
      ],
      "name": "updateBalance",
      "outputs": [],
      "stateMutability": "payable",
      "type": "function"
    },
    {
      "inputs": [
        {
          "internalType": "uint256",
          "name": "amount",
          "type": "uint256"
        }
      ],
      "name": "withdrawEth",
      "outputs": [],
      "stateMutability": "nonpayable",
      "type": "function"
    },
    {
      "inputs": [
        {
          "internalType": "address",
          "name": "token",
          "type": "address"
        },
        {
          "internalType": "uint256",
          "name": "amount",
          "type": "uint256"
        }
      ],
      "name": "withdrawToken",
      "outputs": [],
      "stateMutability": "nonpayable",
      "type": "function"
    }
  ],
  "bytecode": "0x608060405234801561000f575f80fd5b50610cf38061001d5f395ff3fe60806040526004361061006e575f3560e01c80639e281a981161004c5780639e281a98146100e7578063bebfd69014610106578063c23f001f14610125578063c311d04914610166575f80fd5b806334954a9914610072578063764f3aa8146100875780638322fff2146100bc575b5f80fd5b610085610080366004610a66565b610185565b005b348015610092575f80fd5b506100a66100a1366004610a9f565b610466565b6040516100b39190610abf565b60405180910390f35b3480156100c7575f80fd5b506100cf5f81565b6040516001600160a01b0390911681526020016100b3565b3480156100f2575f80fd5b50610085610101366004610b16565b6105f7565b348015610111575f80fd5b506100cf610120366004610b16565b61081f565b348015610130575f80fd5b5061015861013f366004610b3e565b5f60208181529281526040808220909352908152205481565b6040519081526020016100b3565b348015610171575f80fd5b50610085610180366004610b6f565b610853565b5f8082116101d15760405162461bcd60e51b81526020600482015260146024820152734353203a20556e76616c69642062616c616e636560601b60448201526064015b60405180910390fd5b6001600160a01b038316610244573482111561023f5760405162461bcd60e51b815260206004820152602760248201527f4353203a20496e73756666696369656e74206574682062616c616e6365206f666044820152661039b2b73232b960c91b60648201526084016101c8565b610384565b6040516370a0823160e01b815233600482015283906001600160a01b038216906370a0823190602401602060405180830381865afa158015610288573d5f803e3d5ffd5b505050506040513d601f19601f820116820180604052508101906102ac9190610b86565b83111561030d5760405162461bcd60e51b815260206004820152602960248201527f4353203a20496e73756666696369656e7420746f6b656e2062616c616e63652060448201526837b31039b2b73232b960b91b60648201526084016101c8565b6040516323b872dd60e01b8152336004820152306024820152604481018490526001600160a01b038216906323b872dd906064016020604051808303815f875af115801561035d573d5f803e3d5ffd5b505050506040513d601f19601f820116820180604052508101906103819190610b9d565b50505b61038e848461097a565b6103d3576001600160a01b038481165f90815260016020818152604083208054928301815583529091200180546001600160a01b0319169185169190911790556103f8565b506001600160a01b038084165f90815260208181526040808320938616835292905220545b6104028282610bd0565b6001600160a01b038581165f81815260208181526040808320948916808452948252918290209490945551858152919290917ff0464d9450d811655abba57da7b7a203146746224d8e179364a7ecad6ea4b7ca91015b60405180910390a350505050565b6001600160a01b0381165f9081526001602090815260408083208054825181850281018501909352808352606094938301828280156104cc57602002820191905f5260205f20905b81546001600160a01b031681526001909101906020018083116104ae575b505050505090505f815167ffffffffffffffff8111156104ee576104ee610be3565b60405190808252806020026020018201604052801561053257816020015b604080518082019091525f808252602082015281526020019060019003908161050c5790505b5090505f5b82518110156105ef575f83828151811061055357610553610bf7565b602002602001015190506040518060400160405280826001600160a01b031681526020015f80896001600160a01b03166001600160a01b031681526020019081526020015f205f846001600160a01b03166001600160a01b031681526020019081526020015f20548152508383815181106105d0576105d0610bf7565b60200260200101819052505080806105e790610c0b565b915050610537565b509392505050565b5f811161063c5760405162461bcd60e51b815260206004820152601360248201527210d4c80e88155b9d985b1a5908185b5bdd5b9d606a1b60448201526064016101c8565b610646338361097a565b6106825760405162461bcd60e51b815260206004820152600d60248201526c21a9901d102737903a37b5b2b760991b60448201526064016101c8565b335f908152602081815260408083206001600160a01b0386168452909152902054808211156106c35760405162461bcd60e51b81526004016101c890610c23565b6040516370a0823160e01b815230600482015283906001600160a01b038216906370a0823190602401602060405180830381865afa158015610707573d5f803e3d5ffd5b505050506040513d601f19601f8201168201806040525081019061072b9190610b86565b83111561074a5760405162461bcd60e51b81526004016101c890610c66565b6107548383610caa565b335f818152602081815260408083206001600160a01b038a81168552925291829020939093555163a9059cbb60e01b81526004810191909152602481018590529082169063a9059cbb906044016020604051808303815f875af11580156107bd573d5f803e3d5ffd5b505050506040513d601f19601f820116820180604052508101906107e19190610b9d565b506040518381526001600160a01b0385169033907f5c8eba91a611e88d931870555f6d72f42b21168e9c9ad763bd41647d9c5cd8b790602001610458565b6001602052815f5260405f208181548110610838575f80fd5b5f918252602090912001546001600160a01b03169150829050565b5f81116108985760405162461bcd60e51b815260206004820152601360248201527210d4c80e88155b9d985b1a5908185b5bdd5b9d606a1b60448201526064016101c8565b335f90815260208181526040808320838052909152902054808211156108d05760405162461bcd60e51b81526004016101c890610c23565b478211156108f05760405162461bcd60e51b81526004016101c890610c66565b6108fa8282610caa565b335f81815260208181526040808320838052909152808220939093559151909184156108fc02918591818181858888f1935050505015801561093e573d5f803e3d5ffd5b506040518281525f9033907f5c8eba91a611e88d931870555f6d72f42b21168e9c9ad763bd41647d9c5cd8b79060200160405180910390a35050565b6001600160a01b0382165f908152600160209081526040808320805482518185028101850190935280835284938301828280156109de57602002820191905f5260205f20905b81546001600160a01b031681526001909101906020018083116109c0575b505050505090505f5b8151811015610a3f57836001600160a01b0316828281518110610a0c57610a0c610bf7565b60200260200101516001600160a01b031603610a2d57600192505050610a45565b80610a3781610c0b565b9150506109e7565b505f9150505b92915050565b80356001600160a01b0381168114610a61575f80fd5b919050565b5f805f60608486031215610a78575f80fd5b610a8184610a4b565b9250610a8f60208501610a4b565b9150604084013590509250925092565b5f60208284031215610aaf575f80fd5b610ab882610a4b565b9392505050565b602080825282518282018190525f919060409081850190868401855b82811015610b0957815180516001600160a01b03168552860151868501529284019290850190600101610adb565b5091979650505050505050565b5f8060408385031215610b27575f80fd5b610b3083610a4b565b946020939093013593505050565b5f8060408385031215610b4f575f80fd5b610b5883610a4b565b9150610b6660208401610a4b565b90509250929050565b5f60208284031215610b7f575f80fd5b5035919050565b5f60208284031215610b96575f80fd5b5051919050565b5f60208284031215610bad575f80fd5b81518015158114610ab8575f80fd5b634e487b7160e01b5f52601160045260245ffd5b80820180821115610a4557610a45610bbc565b634e487b7160e01b5f52604160045260245ffd5b634e487b7160e01b5f52603260045260245ffd5b5f60018201610c1c57610c1c610bbc565b5060010190565b60208082526023908201527f4353203a20496e73756666696369656e742062616c616e6365206f662073656e6040820152623232b960e91b606082015260800190565b60208082526024908201527f4353203a20496e73756666696369656e742062616c616e6365206f662073746f6040820152637261676560e01b606082015260800190565b81810381811115610a4557610a45610bbc56fea2646970667358221220ce097563b68d25e820225cc62b1dfaffe12389d0a0a92c9e826700169fd8354764736f6c63430008140033",
  "linkReferences": {},
  "deployedLinkReferences": {}
}